:020000040000FA
:060000007AEF08F0120087
:061000007AEF08F0120077
:021006000000E8
:08100800060EF66E100EF76EE5
:10101000000EF86E00010900F550656F0900F550EB
:10102000666F03E1656701D03DD00900F550606F40
:101030000900F550616F0900F550626F0900090061
:10104000F550E96E0900F550EA6E09000900090043
:10105000F550636F0900F550646F09000900F6CF81
:1010600067F0F7CF68F0F8CF69F060C0F6FF61C0B5
:10107000F7FF62C0F8FF0001635302E1645307E029
:101080000900F550EE6E6307F8E26407F9D767C010
:10109000F6FF68C0F7FF69C0F8FF00016507000EA2
:0610A000665BBFD71200E1
:0A10A600FF0EE350036EEF0E01D0C1
:1010B000F30EE76EE72E5AEF08F00C0E026EE76AA9
:1010C000E72E60EF08F0022E5FEF08F0032E58EFD6
:0410D00008F0120012
:0C10D400000EF36E00EE00F0030E01D8D9
:1010E0001200EA6002D0EE6AFCD7F350E960120009
:0410F000EE6AFCD7D1
:0C10F40011EE00F021EE00F0F86A019C03
:1011000004EC08F095EC08F088EC08F0FBD712002E
:10111000946A8B6A8B888B9A7D0EE66E53EC08F08E
:0A112000E5528B788B7AF8D71200A5
:02112A001200B1
:00000001FF
